{
  "contractName": "NFTMarketPlace",
  "abi": [
    {
      "inputs": [],
      "stateMutability": "nonpayable",
      "type": "constructor"
    },
    {
      "anonymous": false,
      "inputs": [
        {
          "indexed": true,
          "internalType": "address",
          "name": "nftContract",
          "type": "address"
        },
        {
          "indexed": true,
          "internalType": "uint256",
          "name": "id",
          "type": "uint256"
        },
        {
          "indexed": false,
          "internalType": "uint256",
          "name": "tokenId",
          "type": "uint256"
        },
        {
          "indexed": false,
          "internalType": "address",
          "name": "seller",
          "type": "address"
        },
        {
          "indexed": false,
          "internalType": "address",
          "name": "owner",
          "type": "address"
        },
        {
          "indexed": false,
          "internalType": "uint256",
          "name": "price",
          "type": "uint256"
        },
        {
          "indexed": false,
          "internalType": "bool",
          "name": "sold",
          "type": "bool"
        }
      ],
      "name": "NFTMarketItemCreated",
      "type": "event"
    },
    {
      "inputs": [],
      "name": "gettheMarketFees",
      "outputs": [
        {
          "internalType": "uint256",
          "name": "",
          "type": "uint256"
        }
      ],
      "stateMutability": "view",
      "type": "function"
    },
    {
      "inputs": [
        {
          "internalType": "address",
          "name": "nftContract",
          "type": "address"
        },
        {
          "internalType": "uint256",
          "name": "tokenId",
          "type": "uint256"
        },
        {
          "internalType": "uint256",
          "name": "price",
          "type": "uint256"
        }
      ],
      "name": "createItemForSale",
      "outputs": [],
      "stateMutability": "payable",
      "type": "function"
    },
    {
      "inputs": [
        {
          "internalType": "address",
          "name": "nftContract",
          "type": "address"
        },
        {
          "internalType": "uint256",
          "name": "nftItemId",
          "type": "uint256"
        }
      ],
      "name": "createMarketForSale",
      "outputs": [],
      "stateMutability": "payable",
      "type": "function"
    },
    {
      "inputs": [],
      "name": "getMyItemCreated",
      "outputs": [
        {
          "components": [
            {
              "internalType": "address",
              "name": "nftContract",
              "type": "address"
            },
            {
              "internalType": "uint256",
              "name": "id",
              "type": "uint256"
            },
            {
              "internalType": "uint256",
              "name": "tokenId",
              "type": "uint256"
            },
            {
              "internalType": "address payable",
              "name": "seller",
              "type": "address"
            },
            {
              "internalType": "address payable",
              "name": "owner",
              "type": "address"
            },
            {
              "internalType": "uint256",
              "name": "price",
              "type": "uint256"
            },
            {
              "internalType": "bool",
              "name": "sold",
              "type": "bool"
            }
          ],
          "internalType": "struct NFTMarketPlace.NFTMarketItem[]",
          "name": "",
          "type": "tuple[]"
        }
      ],
      "stateMutability": "view",
      "type": "function"
    },
    {
      "inputs": [],
      "name": "getMyNFTPurchased",
      "outputs": [
        {
          "components": [
            {
              "internalType": "address",
              "name": "nftContract",
              "type": "address"
            },
            {
              "internalType": "uint256",
              "name": "id",
              "type": "uint256"
            },
            {
              "internalType": "uint256",
              "name": "tokenId",
              "type": "uint256"
            },
            {
              "internalType": "address payable",
              "name": "seller",
              "type": "address"
            },
            {
              "internalType": "address payable",
              "name": "owner",
              "type": "address"
            },
            {
              "internalType": "uint256",
              "name": "price",
              "type": "uint256"
            },
            {
              "internalType": "bool",
              "name": "sold",
              "type": "bool"
            }
          ],
          "internalType": "struct NFTMarketPlace.NFTMarketItem[]",
          "name": "",
          "type": "tuple[]"
        }
      ],
      "stateMutability": "view",
      "type": "function"
    },
    {
      "inputs": [],
      "name": "getAllUnsoldItem",
      "outputs": [
        {
          "components": [
            {
              "internalType": "address",
              "name": "nftContract",
              "type": "address"
            },
            {
              "internalType": "uint256",
              "name": "id",
              "type": "uint256"
            },
            {
              "internalType": "uint256",
              "name": "tokenId",
              "type": "uint256"
            },
            {
              "internalType": "address payable",
              "name": "seller",
              "type": "address"
            },
            {
              "internalType": "address payable",
              "name": "owner",
              "type": "address"
            },
            {
              "internalType": "uint256",
              "name": "price",
              "type": "uint256"
            },
            {
              "internalType": "bool",
              "name": "sold",
              "type": "bool"
            }
          ],
          "internalType": "struct NFTMarketPlace.NFTMarketItem[]",
          "name": "",
          "type": "tuple[]"
        }
      ],
      "stateMutability": "view",
      "type": "function"
    }
  ],
  "bytecode": "0x6080604052664380663abb800060015534801561001b57600080fd5b50600160008190555033600260006101000a81548173ffffffffffffffffffffffffffffffffffffffff021916908373ffffffffffffffffffffffffffffffffffffffff1602179055506119a6806100746000396000f3fe6080604052600436106100555760003560e01c8063446269e61461005a57806357e9b6cc146100855780636c711ee2146100a15780639e31e655146100cc578063bca52442146100f7578063c7a5bc4e14610122575b600080fd5b34801561006657600080fd5b5061006f61013e565b60405161007c91906113b6565b60405180910390f35b61009f600480360381019061009a9190611435565b61048a565b005b3480156100ad57600080fd5b506100b66106fd565b6040516100c391906113b6565b60405180910390f35b3480156100d857600080fd5b506100e16109c6565b6040516100ee91906113b6565b60405180910390f35b34801561010357600080fd5b5061010c610d0a565b6040516101199190611484565b60405180910390f35b61013c6004803603810190610137919061149f565b610d14565b005b6060600061014c60036110e5565b905060008060005b838110156101f4573373ffffffffffffffffffffffffffffffffffffffff16600560006001846101849190611521565b815260200190815260200160002060040160009054906101000a900473ffffffffffffffffffffffffffffffffffffffff1673ffffffffffffffffffffffffffffffffffffffff16036101e1576001836101de9190611521565b92505b80806101ec90611555565b915050610154565b5060008267ffffffffffffffff8111156102115761021061159d565b5b60405190808252806020026020018201604052801561024a57816020015b610237611162565b81526020019060019003908161022f5790505b50905060005b8481101561047f573373ffffffffffffffffffffffffffffffffffffffff16600560006001846102809190611521565b815260200190815260200160002060040160009054906101000a900473ffffffffffffffffffffffffffffffffffffffff1673ffffffffffffffffffffffffffffffffffffffff160361046c5760006001826102dc9190611521565b90506000600560008381526020019081526020016000209050806040518060e00160405290816000820160009054906101000a900473ffffffffffffffffffffffffffffffffffffffff1673ffffffffffffffffffffffffffffffffffffffff1673ffffffffffffffffffffffffffffffffffffffff16815260200160018201548152602001600282015481526020016003820160009054906101000a900473ffffffffffffffffffffffffffffffffffffffff1673ffffffffffffffffffffffffffffffffffffffff1673ffffffffffffffffffffffffffffffffffffffff1681526020016004820160009054906101000a900473ffffffffffffffffffffffffffffffffffffffff1673ffffffffffffffffffffffffffffffffffffffff1673ffffffffffffffffffffffffffffffffffffffff168152602001600582015481526020016006820160009054906101000a900460ff16151515158152505084868151811061044f5761044e6115cc565b5b60200260200101819052506001856104679190611521565b945050505b808061047790611555565b915050610250565b508094505050505090565b6104926110f3565b60006005600083815260200190815260200160002060050154905060006005600084815260200190815260200160002060020154905081341461050a576040517f08c379a000000000000000000000000000000000000000000000000000000000815260040161050190611658565b60405180910390fd5b6005600084815260200190815260200160002060030160009054906101000a900473ffffffffffffffffffffffffffffffffffffffff1673ffffffffffffffffffffffffffffffffffffffff166108fc349081150290604051600060405180830381858888f19350505050158015610586573d6000803e3d6000fd5b508373ffffffffffffffffffffffffffffffffffffffff166323b872dd3033846040518463ffffffff1660e01b81526004016105c493929190611687565b600060405180830381600087803b1580156105de57600080fd5b505af11580156105f2573d6000803e3d6000fd5b50505050336005600085815260200190815260200160002060040160006101000a81548173ffffffffffffffffffffffffffffffffffffffff021916908373ffffffffffffffffffffffffffffffffffffffff16021790555060016005600085815260200190815260200160002060060160006101000a81548160ff021916908315150217905550600260009054906101000a900473ffffffffffffffffffffffffffffffffffffffff1673ffffffffffffffffffffffffffffffffffffffff166108fc6001549081150290604051600060405180830381858888f193505050501580156106e4573d6000803e3d6000fd5b506106ef6004611142565b50506106f9611158565b5050565b6060600061070b60036110e5565b9050600061071960046110e5565b61072360036110e5565b61072d91906116be565b90506000808267ffffffffffffffff81111561074c5761074b61159d565b5b60405190808252806020026020018201604052801561078557816020015b610772611162565b81526020019060019003908161076a5790505b50905060005b848110156109bb57600073ffffffffffffffffffffffffffffffffffffffff16600560006001846107bc9190611521565b815260200190815260200160002060040160009054906101000a900473ffffffffffffffffffffffffffffffffffffffff1673ffffffffffffffffffffffffffffffffffffffff16036109a85760006001826108189190611521565b90506000600560008381526020019081526020016000209050806040518060e00160405290816000820160009054906101000a900473ffffffffffffffffffffffffffffffffffffffff1673ffffffffffffffffffffffffffffffffffffffff1673ffffffffffffffffffffffffffffffffffffffff16815260200160018201548152602001600282015481526020016003820160009054906101000a900473ffffffffffffffffffffffffffffffffffffffff1673ffffffffffffffffffffffffffffffffffffffff1673ffffffffffffffffffffffffffffffffffffffff1681526020016004820160009054906101000a900473ffffffffffffffffffffffffffffffffffffffff1673ffffffffffffffffffffffffffffffffffffffff1673ffffffffffffffffffffffffffffffffffffffff168152602001600582015481526020016006820160009054906101000a900460ff16151515158152505084868151811061098b5761098a6115cc565b5b60200260200101819052506001856109a39190611521565b945050505b80806109b390611555565b91505061078b565b508094505050505090565b606060006109d460036110e5565b90506000806000600190505b83811015610a74573373ffffffffffffffffffffffffffffffffffffffff166005600083815260200190815260200160002060030160009054906101000a900473ffffffffffffffffffffffffffffffffffffffff1673ffffffffffffffffffffffffffffffffffffffff1603610a6157600183610a5e9190611521565b92505b8080610a6c90611555565b9150506109e0565b5060008267ffffffffffffffff811115610a9157610a9061159d565b5b604051908082528060200260200182016040528015610aca57816020015b610ab7611162565b815260200190600190039081610aaf5790505b50905060005b84811015610cff573373ffffffffffffffffffffffffffffffffffffffff1660056000600184610b009190611521565b815260200190815260200160002060030160009054906101000a900473ffffffffffffffffffffffffffffffffffffffff1673ffffffffffffffffffffffffffffffffffffffff1603610cec576000600182610b5c9190611521565b90506000600560008381526020019081526020016000209050806040518060e00160405290816000820160009054906101000a900473ffffffffffffffffffffffffffffffffffffffff1673ffffffffffffffffffffffffffffffffffffffff1673ffffffffffffffffffffffffffffffffffffffff16815260200160018201548152602001600282015481526020016003820160009054906101000a900473ffffffffffffffffffffffffffffffffffffffff1673ffffffffffffffffffffffffffffffffffffffff1673ffffffffffffffffffffffffffffffffffffffff1681526020016004820160009054906101000a900473ffffffffffffffffffffffffffffffffffffffff1673ffffffffffffffffffffffffffffffffffffffff1673ffffffffffffffffffffffffffffffffffffffff168152602001600582015481526020016006820160009054906101000a900460ff161515151581525050848681518110610ccf57610cce6115cc565b5b6020026020010181905250600185610ce79190611521565b945050505b8080610cf790611555565b915050610ad0565b508094505050505090565b6000600154905090565b610d1c6110f3565b60008111610d5f576040517f08c379a0000000000000000000000000000000000000000000000000000000008152600401610d569061173e565b60405180910390fd5b60008211610da2576040517f08c379a0000000000000000000000000000000000000000000000000000000008152600401610d99906117aa565b60405180910390fd5b6001543414610de6576040517f08c379a0000000000000000000000000000000000000000000000000000000008152600401610ddd90611816565b60405180910390fd5b600073ffffffffffffffffffffffffffffffffffffffff168373ffffffffffffffffffffffffffffffffffffffff1603610e55576040517f08c379a0000000000000000000000000000000000000000000000000000000008152600401610e4c90611882565b60405180910390fd5b610e5f6003611142565b6000610e6b60036110e5565b90506040518060e001604052808573ffffffffffffffffffffffffffffffffffffffff168152602001828152602001848152602001600073ffffffffffffffffffffffffffffffffffffffff1681526020013373ffffffffffffffffffffffffffffffffffffffff168152602001838152602001600015158152506005600083815260200190815260200160002060008201518160000160006101000a81548173ffffffffffffffffffffffffffffffffffffffff021916908373ffffffffffffffffffffffffffffffffffffffff160217905550602082015181600101556040820151816002015560608201518160030160006101000a81548173ffffffffffffffffffffffffffffffffffffffff021916908373ffffffffffffffffffffffffffffffffffffffff16021790555060808201518160040160006101000a81548173ffffffffffffffffffffffffffffffffffffffff021916908373ffffffffffffffffffffffffffffffffffffffff16021790555060a0820151816005015560c08201518160060160006101000a81548160ff0219169083151502179055509050508373ffffffffffffffffffffffffffffffffffffffff166323b872dd3330866040518463ffffffff1660e01b815260040161104c93929190611687565b600060405180830381600087803b15801561106657600080fd5b505af115801561107a573d6000803e3d6000fd5b50505050808473ffffffffffffffffffffffffffffffffffffffff167ff43ab3ddb2c2e22798d624a2ba974eba97e8ae987c61e45ca769a98af6607acc856000338760006040516110cf9594939291906118b1565b60405180910390a3506110e0611158565b505050565b600081600001549050919050565b600260005403611138576040517f08c379a000000000000000000000000000000000000000000000000000000000815260040161112f90611950565b60405180910390fd5b6002600081905550565b6001816000016000828254019250508190555050565b6001600081905550565b6040518060e00160405280600073ffffffffffffffffffffffffffffffffffffffff1681526020016000815260200160008152602001600073ffffffffffffffffffffffffffffffffffffffff168152602001600073ffffffffffffffffffffffffffffffffffffffff168152602001600081526020016000151581525090565b600081519050919050565b600082825260208201905092915050565b6000819050602082019050919050565b600073ffffffffffffffffffffffffffffffffffffffff82169050919050565b600061123a8261120f565b9050919050565b61124a8161122f565b82525050565b6000819050919050565b61126381611250565b82525050565b60006112748261120f565b9050919050565b61128481611269565b82525050565b60008115159050919050565b61129f8161128a565b82525050565b60e0820160008201516112bb6000850182611241565b5060208201516112ce602085018261125a565b5060408201516112e1604085018261125a565b5060608201516112f4606085018261127b565b506080820151611307608085018261127b565b5060a082015161131a60a085018261125a565b5060c082015161132d60c0850182611296565b50505050565b600061133f83836112a5565b60e08301905092915050565b6000602082019050919050565b6000611363826111e3565b61136d81856111ee565b9350611378836111ff565b8060005b838110156113a95781516113908882611333565b975061139b8361134b565b92505060018101905061137c565b5085935050505092915050565b600060208201905081810360008301526113d08184611358565b905092915050565b600080fd5b6113e68161122f565b81146113f157600080fd5b50565b600081359050611403816113dd565b92915050565b61141281611250565b811461141d57600080fd5b50565b60008135905061142f81611409565b92915050565b6000806040838503121561144c5761144b6113d8565b5b600061145a858286016113f4565b925050602061146b85828601611420565b9150509250929050565b61147e81611250565b82525050565b60006020820190506114996000830184611475565b92915050565b6000806000606084860312156114b8576114b76113d8565b5b60006114c6868287016113f4565b93505060206114d786828701611420565b92505060406114e886828701611420565b9150509250925092565b7f4e487b7100000000000000000000000000000000000000000000000000000000600052601160045260246000fd5b600061152c82611250565b915061153783611250565b925082820190508082111561154f5761154e6114f2565b5b92915050565b600061156082611250565b91507fffffffffffffffffffffffffffffffffffffffffffffffffffffffffffffffff8203611592576115916114f2565b5b600182019050919050565b7f4e487b7100000000000000000000000000000000000000000000000000000000600052604160045260246000fd5b7f4e487b7100000000000000000000000000000000000000000000000000000000600052603260045260246000fd5b600082825260208201905092915050565b7f53686f756c642062757920746865207072696365206f66206974656d00000000600082015250565b6000611642601c836115fb565b915061164d8261160c565b602082019050919050565b6000602082019050818103600083015261167181611635565b9050919050565b6116818161122f565b82525050565b600060608201905061169c6000830186611678565b6116a96020830185611678565b6116b66040830184611475565b949350505050565b60006116c982611250565b91506116d483611250565b92508282039050818111156116ec576116eb6114f2565b5b92915050565b7f50726963652073686f756c64206265206d6f72655468616e2031000000000000600082015250565b6000611728601a836115fb565b9150611733826116f2565b602082019050919050565b600060208201905081810360008301526117578161171b565b9050919050565b7f546f6b656e2049642073686f756c64206265206d6f72655468616e2031000000600082015250565b6000611794601d836115fb565b915061179f8261175e565b602082019050919050565b600060208201905081810360008301526117c381611787565b9050919050565b7f546865204d61726b6574204665657320697320302e3031302045746865720000600082015250565b6000611800601e836115fb565b915061180b826117ca565b602082019050919050565b6000602082019050818103600083015261182f816117f3565b9050919050565b7f416464726573732073686f756c64206e6f7420626520657175616c20302a3000600082015250565b600061186c601f836115fb565b915061187782611836565b602082019050919050565b6000602082019050818103600083015261189b8161185f565b9050919050565b6118ab8161128a565b82525050565b600060a0820190506118c66000830188611475565b6118d36020830187611678565b6118e06040830186611678565b6118ed6060830185611475565b6118fa60808301846118a2565b9695505050505050565b7f5265656e7472616e637947756172643a207265656e7472616e742063616c6c00600082015250565b600061193a601f836115fb565b915061194582611904565b602082019050919050565b600060208201905081810360008301526119698161192d565b905091905056fea26469706673582212205ce42d48bb9bc96996fac63367d86b2d0a0de3e2de81de6fa669837c035a988d64736f6c63430008130033",
  "immutableReferences": {},
  "source": "// SPDX-License-Identifier: MIT\r\npragma solidity ^0.8.19;\r\n\r\nimport \"@openzeppelin/contracts/utils/Counters.sol\";\r\nimport \"@openzeppelin/contracts/token/ERC721/ERC721.sol\";\r\nimport \"@openzeppelin/contracts/security/ReentrancyGuard.sol\";\r\n\r\ncontract NFTMarketPlace is ReentrancyGuard{\r\n\r\n    uint256 private marketFees = 0.019 ether;\r\n\r\n    address payable owner;\r\n\r\n    using Counters for Counters.Counter;\r\n    Counters.Counter private itemID;\r\n    Counters.Counter private itemsSold;\r\n\r\n    constructor(){\r\n        owner = payable(msg.sender);\r\n    }\r\n\r\n    struct NFTMarketItem{\r\n        address nftContract;\r\n        uint256 id;\r\n        uint256 tokenId;\r\n        address payable seller;\r\n        address payable owner;\r\n        uint256 price;\r\n        bool sold;\r\n\r\n    }\r\n    event NFTMarketItemCreated(\r\n        address indexed nftContract,\r\n        uint256 indexed id,\r\n        uint256 tokenId,\r\n        address seller,\r\n        address owner,\r\n        uint256 price,\r\n        bool sold\r\n\r\n    );\r\n    function gettheMarketFees()public view returns(uint256){\r\n        return marketFees;\r\n    }\r\n\r\n///////////////////////\r\n    mapping(uint256 => NFTMarketItem) private idForMarketItem;\r\n//////////////////////\r\n\r\n    function createItemForSale(address nftContract, uint256 tokenId, uint256 price)public payable nonReentrant{\r\n        require(price > 0,\"Price should be moreThan 1\");\r\n        require(tokenId > 0,\"Token Id should be moreThan 1\");\r\n        require(msg.value == marketFees, \"The Market Fees is 0.010 Ether\");\r\n        require(nftContract != address(0), \"Address should not be equal 0*0\");\r\n\r\n\r\n        itemID.increment();\r\n        uint256 id = itemID.current();\r\n\r\n        idForMarketItem[id]=NFTMarketItem(\r\n            nftContract,\r\n            id,\r\n            tokenId,\r\n            payable (address (0)),\r\n            payable (msg.sender),\r\n            price,\r\n            false\r\n        );\r\n\r\n        IERC721(nftContract).transferFrom(msg.sender, address(this), tokenId);\r\n\r\n        emit NFTMarketItemCreated(nftContract, id, tokenId, address(0), msg.sender, price, false);\r\n\r\n    }\r\n    // Create Market\r\n\r\n    function createMarketForSale(address nftContract, uint256 nftItemId) public payable nonReentrant{\r\n        uint256 price = idForMarketItem[nftItemId].price;\r\n        uint256 tokenId = idForMarketItem[nftItemId].tokenId;\r\n\r\n        require(msg.value == price, \"Should buy the price of item\");\r\n        idForMarketItem[nftItemId].seller.transfer(msg.value);\r\n        IERC721(nftContract).transferFrom( address(this),msg.sender, tokenId); //buy\r\n        idForMarketItem[nftItemId].owner = payable(msg.sender);\r\n        idForMarketItem[nftItemId].sold = true;\r\n        payable(owner).transfer(marketFees);\r\n        itemsSold.increment();\r\n\r\n    }\r\n\r\n    // My items => sold, not sold, buy\r\n\r\n    function getMyItemCreated() public view returns (NFTMarketItem[] memory){\r\n        uint256 totalItemCount = itemID.current();\r\n        uint myItemCount=0;\r\n        uint myCurrentIndex=0;\r\n\r\n        for(uint i = 1; i<totalItemCount;i++){\r\n            if(idForMarketItem[i].seller==msg.sender){\r\n                myItemCount+=1;\r\n\r\n            }\r\n        }\r\n        NFTMarketItem [] memory nftItems = new NFTMarketItem[](myItemCount);\r\n        for(uint i = 0; i<totalItemCount;i++){\r\n            if(idForMarketItem[i+1].seller==msg.sender){\r\n                uint currentId = i+1;\r\n                NFTMarketItem  storage currentItem = idForMarketItem[currentId];\r\n                nftItems[myCurrentIndex] = currentItem;\r\n                myCurrentIndex +=1;\r\n\r\n            }\r\n\r\n\r\n        }\r\n\r\n        return nftItems;\r\n    }\r\n\r\n    // Create My purchased NFT Item\r\n\r\n    function getMyNFTPurchased() public view returns (NFTMarketItem[] memory){\r\n        uint256 totalItemCount = itemID.current();\r\n        uint myItemCount=0;\r\n        uint myCurrentIndex=0;\r\n\r\n        for(uint i = 0; i<totalItemCount;i++){\r\n            if(idForMarketItem[i+1].owner==msg.sender){\r\n                myItemCount+=1;\r\n\r\n            }\r\n        }\r\n\r\n        NFTMarketItem [] memory nftItems = new NFTMarketItem[](myItemCount);\r\n        for(uint i = 0; i<totalItemCount;i++){\r\n            if(idForMarketItem[i+1].owner==msg.sender){\r\n                uint currentId = i+1;\r\n                NFTMarketItem  storage currentItem = idForMarketItem[currentId];\r\n                nftItems[myCurrentIndex] = currentItem;\r\n                myCurrentIndex +=1;\r\n\r\n            }\r\n\r\n\r\n        }\r\n\r\n        return nftItems;\r\n    }\r\n\r\n    // Fetch all unsold NFT item\r\n\r\n    function getAllUnsoldItem() public view returns (NFTMarketItem[] memory) {\r\n        uint256 totalItemCount = itemID.current();\r\n        uint myItemCount= itemID.current() - itemsSold.current();\r\n        uint myCurrentIndex=0;\r\n\r\n        NFTMarketItem [] memory nftItems = new NFTMarketItem[](myItemCount);\r\n        for(uint i = 0; i<totalItemCount;i++){\r\n            if(idForMarketItem[i+1].owner==address(0)){\r\n                uint currentId = i+1;\r\n                NFTMarketItem  storage currentItem = idForMarketItem[currentId];\r\n                nftItems[myCurrentIndex] = currentItem;\r\n                myCurrentIndex +=1;\r\n\r\n            }\r\n\r\n\r\n        }\r\n\r\n        return nftItems;\r\n\r\n        \r\n\r\n    }\r\n\r\n}",
  "sourcePath": "C:\\Users\\HP\\Downloads\\kk\\contracts\\NFTMarketPlace.sol",
  "compiler": {
    "name": "solc",
    "version": "0.8.19+commit.7dd6d404.Emscripten.clang"
  },
  "schemaVersion": "3.4.13",
  "updatedAt": "2023-06-18T11:00:33.317Z",
  "devdoc": {
    "kind": "dev",
    "methods": {},
    "version": 1
  },
  "userdoc": {
    "kind": "user",
    "methods": {},
    "version": 1
  }
}